:0600000000008A110B282C
:10000800FE00030EF1000A08F2008A15F02D8301A4
:100018000308A0008A111028FB01FC01FD018313CD
:100028002130840068308A11F5278A11A0308400B5
:10003800E0308A11F5278A11831720308400403078
:100048008A11F5278A1183168A1505218A11E0007D
:100058008A1506218A11E1008A1507218A11E20012
:100068008A1508218A11E30083128A11FD278A1153
:10007800EC008A11FE278A11ED0083018A117A2F7C
:10008800461C472848284C2846108A15C4228A113D
:1000980083120313C61C512852285628C6108A15E5
:1000A800C4228A11831203135508031D5C285D2896
:1000B8008F286D088400143083130006031D6528FB
:1000C80066288F28580803196A286B288F28D801B2
:1000D8002408BA002308B90040083A02031D76280C
:1000E8003F083902031C79287A2888280A306306D1
:1000F800031D7F28802886288A15D6238A11D501D2
:10010800D50A8F28E30A8F28630803198C288D28BD
:100118008F28E3038F287D1B9228932835296D08A3
:100128008400143083130006031D9B289C28EB28A9
:1001380058080319A028A128EB28D8012408BA00D8
:100148002308B90040083A02031DAC283F083902C9
:10015800031CAF28B028BC280A306306031DB52845
:10016800B628B8285C15B928E30A4A107C10EB2891
:1001780063080319C028C128C328E30306135C11C8
:10018800DC103A082E02031DCB2839082D0203186B
:10019800CE28CF28E4282C083A02031DD5282B089E
:1001A80039020318D828D928E4280A304906031D3B
:1001B800DE28DF28E2284A147C14EB28C90AEB2839
:1001C80049080319E828E928B928C903B9286D0896
:1001D800840005300006031DF228F3281829580862
:1001E8000319F728F8281829D8012208BA00210885
:1001F800B9003A083602031D032939083502031CE1
:100208000629072911290A306406031D0C290D291E
:100218000F295C141829E40A1829640803191529F8
:1002280016291829E4035C105C1D1B291C29372991
:10023800DC181F29202937290617DC10051F252956
:10024800DC14831203135412051F2B29541683122E
:100258000313DC183029312937295C11E30106130F
:1002680037297830DC057D1E3A293B297A297D1DFE
:100278003E293F297A296508031D432944297B29FA
:100288007D0C0139F700060E01397706031D4D294B
:100298004E296C290A305206031D532954296A290C
:1002A800DC155108031D59295A297529E01A5D29B9
:1002B8005E297529E0173008F4002F08F300F501CE
:1002C8008A1543218A11D101D10A7529D20A7529C3
:1002D80052080319702971297529D203DC110E10EF
:1002E800D101CE308A1529218A117B29DC117D0C98
:1002F800F700F70C770C0139F8007D0E0139780505
:100308000319872988298D295C12FD1F8C295C1601
:100318008E295C12831203139E1893299429972916
:100328008A1545248A115C08600603199C299D29B1
:10033800B9294A1EA029A129AF29CA01C9015830E3
:10034800F3009E30F400F5018A1543218A114030EC
:100358008A1515218A117C1FB229B329C329FC01EA
:100368004C178A1528228A11C329DC01E401E3010C
:10037800D201C901D10104308A1515218A1108005A
:1003880011089312B0307B060319CB29CC29662AB1
:100398000313C501312A7D08C4008030C405222B0F
:1003A8007D08C4001E30C405222B83164208831220
:1003B800C500831644088312C400222B831626081E
:1003C8008312C400222B831624088312C400222B14
:1003D800831636088312C400222B8316340883122E
:1003E800C400222B83163A088312C50083163C08E2
:1003F8008312C400222B6108C400222B2408C500E4
:100408002308C400222B2808C5002708C400222B73
:100418002608C5002508C400222B00307D1B0130AA
:10042800C400222B031720080313C400222B4F08F3
:10043800C5005008C400222B7C18232A242A222B0A
:1004480003179316222B4A182A2A2B2A222B031722
:100458009316222B03179316222B7B08013A0319B4
:10046800CF29033A0319D429233A0319D929133A6E
:100478000319E229013A0319E729733A0319EC2908
:10048800043A0319F1291D3A0319F629213A0319E7
:10049800FF29F03A0319022A043A0319072A013AF4
:1004A80003190C2A3C3A0319112A033A0319162A8C
:1004B800013A03191B2A0E3A0319202A033A031991
:1004C800272A2E2A0313C501132B8316210883120A
:1004D800C500831620088312C400222B8316230824
:1004E8008312C500831622088312C400222B8316A8
:1004F80028088312C400222B83162A088312C400FA
:10050800222B83162C088312C400222B83162E0854
:100518008312C400222B831646088312C400222BA0
:1005280083163E088312C400222B031724080313E2
:10053800C500031726080313C400222B8316490895
:100548008312C500831648088312C400222B831621
:100558004B088312C50083164A088312C400222B55
:1005680083164D088312C50083164C088312C400F5
:10057800222B03172D080313C50003172C08031398
:10058800C400222B03172F080313C50003172E08D6
:100598000313C400222B831640088312C400222BA5
:1005A80003172B080313C50003172A080313C400F5
:1005B800222B831632088312C50083163008831253
:1005C800C400222B031722080313C400222B03178D
:1005D80032080313C500031730080313C400222B85
:1005E800031736080313C500031734080313C400A0
:1005F800222B03173A080313C500031738080313FF
:10060800C400222B03173C080313C400222B8316B3
:1006180038088312C400222B03179316222B5D0877
:10062800FF3E031C102B8400173004020318102B04
:1006380008308A000310040D003E820003171216CA
:100648000313CB010800103085008601EA308316B9
:1006580085003B3086008312C801C7014808031D86
:10066800362B372B512B47088A151D218A118312E7
:1006780003130310470DA03E8400831603171408C4
:1006880083138000831203130310470DA13E8400D7
:1006980083160317150880008B2B4803031D552B61
:1006A800562B712B4708103E8A151D218A1183127B
:1006B80003130310470D203E840083160317140804
:1006C80083178000831203130310470D213E840013
:1006D80083160317150880008B2B4708203E8A15C0
:1006E8001D218A11831203130310470DC03E840095
:1006F800831603171408831380008312031303104F
:10070800470DC13E84008316031715088000831225
:100718000313C70A10304702031C932B942B322B68
:10072800C80A03304802031C9A2B9B2B312B9301D8
:10073800831624088312910004309000831626083B
:100748008312950001309E0050309F0099019A0154
:100758000130831681003408990036089A008B30DE
:10076800900028089B002A0898002C089C002E0856
:100778009300950110308700831203178701CD304D
:100788008900203085008601803096000130930072
:1007980043309400FF309500970198018C30831600
:1007A8009F008312A01ED92BDA2BE02B83169F14EF
:1007B800831220081F398800023083168700023010
:1007C8008800101720309300803092001014000029
:1007D8000000831603171508990014089800813043
:1007E80092001014000000008316031715089C00DF
:1007F80014089B0082309200101400000000831639
:10080800031715089A0014089D0010131F300313CE
:100818004405F50014307502031C132C142C172CF6
:100828009330C4001A2C44088038C4004A08831244
:10083800CC001F300317A6058A158C238A11B50131
:10084800B601831638088312B504831620080319E5
:100858002E2C2F2C342CA0130314210DA100372C7F
:100868000310210DA100220803193B2C3C2C412C1C
:10087800A2130314230DA300442C0310230DA3007B
:10088800831203172808FD0022080313D600031754
:1008980032080313B000031730080313AF0003171F
:1008A8003A080313B400031738080313B3000317F7
:1008B80036080313B800031734080313B700DC0124
:1008C800D401E101C6011F30E00003138312201A8E
:1008D8006E2C6F2C722C83120313E11601308A15CB
:1008E80015218A1187018801C0308B000800031385
:1008F8004B08031D802C812CDA2C03171108FB00F0
:100908000313CB01CB0A031793129F2CAC2D7C1C2D
:100918008E2C8F2C912CFC14AC2D9316AC2D03131C
:100928004A1C972C982C9A2CCA14AC2D0317931692
:10093800AC2D9316AC2D7B08013A03198A2C033A87
:1009480003198A2C013A03198A2C223A0319AC2D6F
:10095800133A0319AC2D013A0319AC2D733A031954
:10096800AC2D043A0319AC2D1D3A0319AC2D213ACC
:100978000319AC2DF03A0319AC2D043A0319AC2D28
:10098800013A0319AC2D3D3A0319AC2D013A03196C
:10099800AC2D033A0319AC2D013A0319AC2D0E3ACC
:1009A80003198B2C033A0319932C9D2CBE307B061C
:1009B8000319DF2CE02C7E2DBD307B060319E52CB6
:1009C800E62C7E2D03179312FA2C202D7C1EED2C7D
:1009D800EE2CF52C0830031359060319F42CF52CCA
:1009E800202D03179316202D9316202D7B08013AEE
:1009F8000319E92C033A0319E92C013A0319E92CE4
:100A0800223A0319202DA93A0319EA2C043A0319AA
:100A1800EA2C3C3A0319202D013A0319202D033AF8
:100A28000319202D013A0319202D0E3A0319202D00
:100A3800033A0319202DF82C03134B03031D252D0E
:100A4800262D3B2D031711080313C4000230CB00D9
:100A58008C307B06031D312D322DAC2D55304406CC
:100A68000319372D382D8A2C03179316AC2D03172D
:100A780011080313C50088307B06031D442D452D3E
:100A8800512D8316C001FC1783124508B200B1012D
:100A98004408B104BB01BC01CD01B0307B06031D85
:100AA800562D572D7B2D0930440603195C2D5D2DDD
:100AB800602D031793166C2D7C1E632D642D6A2DF3
:100AC800083059060319692D6A2D6C2D03179316E2
:100AD800083003134B020318722D732D8A2C4B0810
:100AE800C63E8400450883138000CB0AAC2D033032
:100AF800CB00AC2D031711080313C4004B08C73EE5
:100B0800840083130008440603198B2D8C2D912D26
:100B1800CA10FC1003179316932D0317931206306F
:100B280003134B06031D992D9A2D792DBE307B0694
:100B3800031D9F2DA02DA62DCA1CA32DA42D792DF4
:100B4800CA15792DFC1CA92DAA2D792DFC15792DF6
:100B5800031712160800762E7F307D05F600031362
:100B6800440880397604FD00962EC0307D05F600D5
:100B7800031344081E397604FD007D1EC42DC52DBF
:100B8800CB2DFD1DC82DC92DCB2D6016CC2D601287
:100B98007D1ECF2DD02DD62D7D1DD32DD42DD62D18
:100BA800E015962EE011962E0313E101962E0313FD
:100BB8004403031DE02DE12DEB2D88016F308316D2
:100BC8008805831206137D17F830E005962E8801F4
:100BD800903083168804831206177D130730E004CB
:100BE800962E7C1EF82DF92D962E083003135906E3
:100BF800031DFF2D002E962E55304406031D052E8D
:100C0800062E962EFC1E092E0A2E142E2C30F300CA
:100C1800CF30F400F5018A1543218A117C17962EEE
:100C28008316C601C60A0B138A1562218A110B178F
:100C3800FC16962E031344080317A000A01E252EA9
:100C4800262E312E83169F141F3083122005F6009E
:100C58000808E03976048800962E83169F10962E91
:100C6800083003135906031D3A2E3B2E962E4408CE
:100C7800D0004508CF004615962E03134408DD0022
:100C88007C1E472E482E962E08304B06031D4D2EEF
:100C98004E2E962ECC170F3083164A05F600831277
:100CA8004C087606F0397606CC008A1528228A1177
:100CB800FD131830FD04FC01962E0F307C06031D31
:100CC800662E672E962E1030FC00962E0F300313DA
:100CD8004A06031D702E712E962E1030CA00962ECD
:100CE8000000962E7B08013A0319B02D033A031928
:100CF800B92D013A0319D82D8F3A0319F52D3C3A2D
:100D08000319412E013A0319DB2D033A03191E2E4C
:100D1800013A0319342E0E3A0319612E033A0319C6
:100D28006A2E742E08007D1B9A2E9B2EE72E5412D5
:100D3800051F9F2E541683120313541AA42EA52E92
:100D4800AA2E20308A1515218A11792F6D08840062
:100D5800143083130006031DB22EB32EE82E580854
:100D68000319B72EB82EE82ED8012408BA00230894
:100D7800B9003E083A02031DC32E3D083902031884
:100D8800C62EC72ED52EE30A0A306306031DCD2EC4
:100D9800CE2EDB2E5415E30120308A1515218A1139
:100DA800792F63080319D92EDA2EDB2EE303FC1FF3
:100DB800DE2EDF2EE82E3A08F7003908F6008A15ED
:100DC8008A228A11E82EE3017C1FEB2EEC2EEF2EEF
:100DD8008A15D7218A11461DF22EF32EF72E4611B9
:100DE8008A154A258A117D1EFA2EFB2E272F7D1D76
:100DF800FE2EFF2E272F831203136508031D052FD0
:100E0800062F272F7D0C0139F800060E01397806C8
:100E180003190F2F102F1D2FD20A0A305206031D57
:100E2800162F172F232FD20110308A1515218A115A
:100E3800792F52080319212F222F232FD203CE30C6
:100E48008A1529218A117D0CF800F80C780C0139D3
:100E5800F9007D0E013979050319332F342F3D2F01
:100E6800FD1B372F382F3D2F10308A1515218A1179
:100E7800792F831203139E18422F432F462F8A156A
:100E880045248A1103173C0803134E0203184D2FFB
:100E98004E2F5D2F6608031D522F532F672FCE0A42
:100EA8005830F3009E30F400F5018A1543218A1169
:100EB800672F03173C0803134E06031D642F652F85
:100EC800672FCE0ADF01461C6A2F6B2F6F2F461043
:100ED8008A15C4228A1183120313C61C742F752F16
:100EE800792FC6108A15C4228A1108008A1127236F
:100EF8008A1164000830831203135906031D852FD5
:100F0800862F902F04305E06031D8B2F8C2F902F79
:100F18008A1197268A117D2F02305906031D952FB5
:100F2800962FAB2F5E0303199A2F9B2FA72F1030F4
:100F38005E060319A02FA12FA72F40305E06031DC0
:100F4800A62FA72FAB2F8A1144208A117D2F04309A
:100F58005906031DB02FB12FBB2F02305E06031DAB
:100F6800B62FB72FBB2F8A15B6248A117D2F1030C4
:100F78005906031DC02FC12FD12F08305E06031953
:100F8800C62FC72FCD2F20305E06031DCC2FCD2FA7
:100F9800D12F8A15FD218A117D2F5903031DD52FC5
:100FA800D62FDF2F5E08031DDA2FDB2FDF2F8A15E0
:100FB80084218A117D2F40305906031DE42FE52F27
:100FC800EF2F02305E06031DEA2FEB2FEF2F8A1555
:100FD80045238A117D2F8A1555228A117D2F8A1162
:100FE8000B2864008001840A0406031900340406EF
:060FF800F62FE034E334A3
:101000008A11692A8A11722A8A117B2A8A11802AF6
:101010008A11852A8A118A2A8A118F2A8A11942A8A
:101020008A11A22A8A11AB2A8A11B42A8A11BD2AEE
:101030008A11C62A8A11CF2A8A11D42A8A11992A9A
:101040008A11DD2A8A11E62A8A11EB2A8A11F42AEA
:0C1050008A11FD2A8A11062B8A110B2B35
:10120A00053414340A340634F0005908DE00700834
:10121A00D90008001108931212160313CB01080013
:10122A00F300831203135908DE007308D90008007B
:10123A00F3000E308316031793007308A03E920042
:10124A001014000000000800F300730883128100E4
:10125A000130831681000B118B168312E501E50A12
:10126A00080083120615F1308A1529218A156508A6
:10127A00031D402941293C29061108007508E70089
:10128A0074088D0073088C00071083160714313018
:10129A0083128E00E601E60A0800F4018A15452445
:1012AA008A159E1859295A295629F40A04307402B3
:1012BA00031C60296129532908008A1536218A15D9
:1012CA00831646088312E2006D290615E203061109
:1012DA006208031D712972296A29080041088316C8
:1012EA00C200831242088316C400FC0183124C1602
:1012FA008A1528228A15FD131830FD040800881C57
:10130A00872988298A2988109C2906308A15292143
:10131A008A156508031D922993298E290617061333
:10132A008A1552218A1502308A1515218A15080054
:10133A00AA2983301A02031CA329A429A729033046
:10134A009A02AA2992309A00990383120313190860
:10135A004106031DB129B2299E291A08FC39430600
:10136A00031DB829B9299E290800C72991301A02F4
:10137A000318C029C129C42903309A07C729803014
:10138A009A00990A8312031319084106031DCE29EC
:10139A00CF29BB291A08FC394306031DD529D629AA
:1013AA00BB2908006608031DDB29DC29FC292C302F
:1013BA00F300CF30F400F5018A1543218A1583160C
:1013CA00C60A460A031DEA29EB29F1297C12FD13F4
:1013DA001830FD04F1298B138B1BF429F529F02908
:1013EA008312061500008312031306118B170800D7
:1013FA0005166F308316880583128613061310119B
:10140A0005100C30831603179F04831203139901E6
:10141A009A01E301D20146118A1552218A15083030
:10142A005E06031D192A1A2A222A3808F4003708E8
:10143A00F300F5018A1543218A15E01602308A1550
:10144A0015218A1508004C088316CA0003171015BF
:10145A00F30164007308C03E8316031792000E302E
:10146A0093000310730DC03E840083130008940098
:10147A000310730DC13E8400000895005530910099
:10148A00AA309100901400000000F30A1030730291
:10149A00031C502A512A2E2A8316031710110800FA
:1014AA0005165408D7003408F4003308F300F50190
:1014BA00F50A8A1543218A15541C642A652A672A63
:1014CA00E1155410D41C6A2A6B2A6D2A6116D410AD
:1014DA00541D702A712A732AE1145411D41D762AD4
:1014EA00772A802A6115D4117C1E7C2A7D2A802ABB
:1014FA00FD131830FD04541A832A842A852A61149C
:10150A0010308A1515218A1508006608031D8E2ACF
:10151A008F2AC32A2C30F300CF30F400F5018A1544
:10152A0043218A154D0803199B2A9C2AA22A760868
:10153A00BB070318BC0A7708BC0710304D0603190D
:10154A00A72AA82AAA2ACD0AC32ABB0EBC0E0F3084
:10155A00BB053C08F039BB040F30BC053B0831021F
:10156A008316C0008312CC168A1528228A15FD1309
:10157A001830FD04FC018A158C238A15080003170C
:10158A00161DC82AC92AE32A941FCC2ACD2AD92A89
:10159A00161CD02AD12AD92A961AD42AD52AD92A67
:1015AA008A11C4218A15002B131BDC2ADD2AE12AA1
:1015BA008A1501238A15002B1216002B941FE62A7E
:1015CA00E72AF72A161CEA2AEB2AF72A961EEE2A97
:1015DA00EF2AF32A8A117B248A15002B8A150F21F8
:1015EA008A15002B161EFA2AFB2AFF2A8A11AF2512
:1015FA008A15002B12160800BE307B060319062B2B
:10160A00072B292BBD307B0603190C2B0D2B292BFD
:10161A0003134B08031D122B132B1A2B4408031711
:10162A0091000313CB01CB0A422B4B03031D1E2B44
:10163A001F2B262B45080317910002300313CB00FA
:10164A00422B03179101422B03134B08C83E840017
:10165A0083130008031791000313CB0A06304B06C5
:10166A00031D382B392B422BBE307B06031D3E2B24
:10167A003F2B412B4A15422B7C15031712160800E3
:10168A009E18482B492B4C2B8A1545248A15660827
:10169A000319502B512B522B8B2B6D0884001430BD
:1016AA0083130006031D5A2B5B2B8B2B2408BA00CD
:1016BA002308B90002308A1515218A1583163008C5
:1016CA00F900FA0183123A087A02031D6E2B3908CF
:1016DA0079020318712B722B8B2B83163208F900AF
:1016EA00FA017A0883123A02031D7D2B790839021E
:1016FA000318802B812B8B2B0617051B852B862B1A
:10170A008A2B8A15D0268A158B2B06130800831676
:10171A0003133A088312BF00C00183164008F3007E
:10172A00F401F31BF40373088312BF070318C00AFA
:10173A007408C00783163C088312BD00BE018316D5
:10174A004008F300F401F31BF40373088312BD0786
:10175A000318BE0A7408BE07831630088312AD0048
:10176A00AE0183164008F300F401F31BF403730877
:10177A008312AD070318AE0A7408AE07831632083F
:10178A008312AB00AC0183164008F300F401F31B8B
:10179A00F40373088312AB070318AC0A7408AC0786
:1017AA0008009E1000000000000000000000000079
:1017BA00000000004530831203139E0000008312CC
:1017CA0003139E149E18EA2BEB2BE72B1D08031D0F
:1017DA00EF2BF02BF72B83160310210D831203171F
:1017EA009000172C02301D020318FC2BFD2B042C31
:1017FA0083160310230D831203179000172C03304E
:10180A001D020318092C0A2C112C83160310220D11
:10181A00831203179000172C83160310200D8312CE
:10182A00031790008316870183120313561C1E2C7C
:10183A001F2C272CEA3083168500443083120317A5
:10184A0088042E2CE830831685002430831203176F
:10185A0088042630920003136C088400831300085E
:10186A00F30001300310F30DFF3E031D372C031064
:10187A00730D01389E000000831203139E140800A2
:10188A006D2C1C08A1001D08A2007E2C831640089E
:10189A008312A900AA01A91BAA031C08A9070318F5
:1018AA00AA0A1D08AA07AA1F5B2C5C2C5E2CA90198
:1018BA00AA012908A3002A08A4007E2C1C08A50056
:1018CA001D08A6007E2C1C08A7001D08A8007E2C57
:1018DA006C08840083130008053A0319462C033A5E
:1018EA000319682C0C3A0319632C1E3A03194B2C62
:1018FA007E2C6C08ED006C08E33A0319852C862CC3
:10190A009D2CEC0A6C0884000A300006031D8E2CFC
:10191A008F2CA12C5B0A0319932C942CA02CDB0A84
:10192A006C08E33A03199A2C9B2C9D2CEC0AA12CE7
:10193A00E030EC00A12CDB016C0884000008F30005
:10194A0001300310F30DFF3E031DA62C0310730D87
:10195A0001389E000000831203139E14D801D80A8E
:10196A00080005158930F300FE30F400F5018A15E8
:10197A0043218A158A1562218A156608031DC62C19
:10198A00C72CC22C83163E088A1529218A1583166C
:10199A003E0A031DD12CD22CD42C83120514831297
:1019AA00861780309A00831644088312C200FC30DE
:1019BA00C205831642088312C1001015F33083163C
:1019CA0003179F057D1BEA2CEB2CF22C83120313C1
:1019DA00081283160816F22C0B130B1BF52CF62C87
:1019EA00F12C0D2D92301A060319FC2CFD2C002D1A
:1019FA0003309A070D2D80309A00990A8312031337
:101A0A006508031D092D0A2D0D2D0514E501E50AAA
:101A1A008312031319084106031D142D152DF72CE3
:101A2A001A08FC394206031D1B2D1C2DF72CE50153
:101A3A008316440883129A000B177D1B252D262D29
:101A4A00292D88138316881783120511D4182E2D71
:101A5A002F2D442D5418322D332D442DD419362DC3
:101A6A00372D442D08308A1515218A155830F30070
:101A7A009E30F400F5018A1543218A15CE01D61C41
:101A8A00472D482D492D051208005008DA008030EC
:101A9A00DA051F30D00514305002031C552D562D7F
:101AAA00582D1330D0004F0803172402031C5E2D53
:101ABA005F2D6E2D240803134F06031D652D662D19
:101ACA00752D50081F390317260203186D2D6E2D28
:101ADA00752D24080313CF00031726080313D0001B
:101AEA0003135A0803197A2D7B2D9E2D1F30831656
:101AFA004405F4008312500874020318852D862DBC
:101B0A00932D500883164402143E8312C2004F08D4
:101B1A0083164202FF3E8312C100B72D5008831676
:101B2A0044028312C2004F08831642028312C10084
:101B3A00B72D5008831644078312C200943042021C
:101B4A00031CA82DA92DB22DED30C2074F0883160C
:101B5A004207013E8312C100B72D4F088316420780
:101B6A008312C1007C1EBA2DBB2DBF2D8A1573218D
:101B7A008A15EF2D4208C300FC30C305410819023B
:101B8A000318C82DC92DCD2D8A15BA218A15EB2D1A
:101B9A00190841020318D22DD32DD72D8A159D215C
:101BAA008A15EB2D41081906031DDC2DDD2DEB2DC1
:101BBA0042081A020318E22DE32DE42DC92D1A0852
:101BCA0042020318E92DEA2DEB2DD32D42089A047F
:101BDA005A08D00408008B1EF32DF42DFE2D0B1D80
:101BEA00F72DF82DFE2D8B120B1183120313E5012D
:101BFA00992E83160313071C032E042E3A2E8312E2
:101C0A00071C082E092E3A2E0E10071083160710ED
:101C1A008312E601E01267080319142E152E332EDB
:101C2A0003172B08031D1A2E1B2E992E03135F0868
:101C3A005706031D212E222E2E2ED30A03172A08F9
:101C4A0003135306031D2A2E2B2E392E60176117F4
:101C5A00992E5708DF00D301D30A992EE01F362E9A
:101C6A00372E392EE013992E992E8312081E3E2EF6
:101C7A003F2E562E8316081E432E442E562E8312AE
:101C8A00051686130C30831603179F046F3003134F
:101C9A0088058312081220308A1509218A155414DE
:101CAA00992E8312881F5A2E5B2E862E8316881F22
:101CBA005F2E602E862E83125412051F652E54162F
:101CCA0083120313D411851D6B2ED41583120313AB
:101CDA00051686130C30831603179F046F300313FF
:101CEA00880583128813D4197B2E7C2E812E541ECC
:101CFA007F2E802E812ED41420308A1509218A1530
:101D0A00992E8312071E8A2E8B2E992E8316071E52
:101D1A008F2E902E992E831207124618952E962EE4
:101D2A00982E4614992EC61472088A00710E8300E2
:101D3A00FE0E7E0E09009C0E9E0F06000600000095
:101D4A004F00CA0009005B0088002C0051001000F7
:101D5A00D500CC00FF00000000000C0009009C0028
:101D6A003201D7024906FF00FF009500FC00580027
:101D7A009E000500FF3F00003F0088007F00000032
:101D8A0000000000FF3FFF3FFF3FFF3FFF3FFF3FD5
:101D9A00FF3FFF3FFF3F8B01640083120313071EBF
:101DAA00D72ED82ED12E071203179312161DDE2E08
:101DBA00DF2E0B2F941FE22EE32EEF2E161CE62E9B
:101DCA00E72EEF2E961AEA2EEB2EEF2E8A1576279D
:101DDA008A15442F131BF22EF32E442F2108031DBC
:101DEA00F72EF82EFE2E8316140883129100A10AEC
:101DFA00442F2103031D022F032F082F83161508D2
:101E0A0083129100FC2E9101442F442F941F0E2F10
:101E1A000F2F442F161C122F132F442F961E162FE6
:101E2A00172FEB2E2208031D1B2F1C2F2C2F1108F6
:101E3A00A200BE3022060319232F242F0A2FBF30F7
:101E4A0022060319292F2A2F0A2F9316442F2330EB
:101E5A000313E8000130E900031721080313680798
:101E6A00EA000030031801306907EB006A088400B1
:101E7A0083136B188317031711088000FC2E831233
:101E8A000317161E492F4A2F5E2F16194D2F4E2F54
:101E9A005E2FBE302206031D532F542F5E2F223091
:101EAA002106031D592F5A2F5E2F8A1597278A1547
:101EBA00D12E161E612F622F732F1619652F662FCA
:101ECA00732FBE302206031D6B2F6C2F732F210335
:101EDA00031D702F712F732F6400712F1216D12ECC
:101EEA00080003171108A000A101161D7D2F7E2FDF
:101EFA008A2FBF302206031D832F842F882F8A152D
:101F0A008C278A158B2F93168B2FA2010800230882
:101F1A00831692008312240883169300101400007B
:101F2A00000008008316101310158312A101640023
:101F3A0083120317210823078316920083122408A9
:101F4A008316930083122108F300F4010310F30DA2
:101F5A00F40D2530F5000130F60073087507F70017
:101F6A0074080318740A7607F80077088400831740
:101F7A00781C831300088316940083122108F30047
:101F8A00F4010310F30DF40D2630F5000130F600CC
:101F9A0073087507F70074080318740A7607F800BF
:101FAA00770884008317781C83130008831695002A
:101FBA0055309100AA30910090140000000083125D
:101FCA000317A10A10302102031CEC2FED2F9C2FBE
:0A1FDA00831610118312A101080004
:02400E00DFFFD2
:00000001FF
